{
	"contracts/hello.sol": {
		"NFTCount": {
			"abi": [
				{
					"inputs": [],
					"name": "addNFT",
					"outputs": [],
					"stateMutability": "nonpayable",
					"type": "function"
				},
				{
					"inputs": [],
					"name": "checkTotalNFT",
					"outputs": [],
					"stateMutability": "nonpayable",
					"type": "function"
				},
				{
					"inputs": [],
					"name": "deleteNFT",
					"outputs": [],
					"stateMutability": "nonpayable",
					"type": "function"
				},
				{
					"inputs": [],
					"name": "numberOfNFT",
					"outputs": [
						{
							"internalType": "uint256",
							"name": "",
							"type": "uint256"
						}
					],
					"stateMutability": "view",
					"type": "function"
				}
			],
			"devdoc": {
				"kind": "dev",
				"methods": {},
				"version": 1
			},
			"evm": {
				"assembly": "    /* \"contracts/hello.sol\":60:429  contract NFTCount{... */\n  mstore(0x40, 0x80)\n  callvalue\n  dup1\n  iszero\n  tag_1\n  jumpi\n  0x00\n  dup1\n  revert\ntag_1:\n  pop\n  dataSize(sub_0)\n  dup1\n  dataOffset(sub_0)\n  0x00\n  codecopy\n  0x00\n  return\nstop\n\nsub_0: assembly {\n        /* \"contracts/hello.sol\":60:429  contract NFTCount{... */\n      mstore(0x40, 0x80)\n      callvalue\n      dup1\n      iszero\n      tag_1\n      jumpi\n      0x00\n      dup1\n      revert\n    tag_1:\n      pop\n      jumpi(tag_2, lt(calldatasize, 0x04))\n      shr(0xe0, calldataload(0x00))\n      dup1\n      0x3748a5c2\n      eq\n      tag_3\n      jumpi\n      dup1\n      0x3d82faf0\n      eq\n      tag_4\n      jumpi\n      dup1\n      0x8acc7b47\n      eq\n      tag_5\n      jumpi\n      dup1\n      0xe02b87bb\n      eq\n      tag_6\n      jumpi\n    tag_2:\n      0x00\n      dup1\n      revert\n        /* \"contracts/hello.sol\":84:107  uint public numberOfNFT */\n    tag_3:\n      tag_7\n      tag_8\n      jump\t// in\n    tag_7:\n      mload(0x40)\n      tag_9\n      swap2\n      swap1\n      tag_10\n      jump\t// in\n    tag_9:\n      mload(0x40)\n      dup1\n      swap2\n      sub\n      swap1\n      return\n        /* \"contracts/hello.sol\":147:195  function checkTotalNFT() public {... */\n    tag_4:\n      tag_11\n      tag_12\n      jump\t// in\n    tag_11:\n      stop\n        /* \"contracts/hello.sol\":255:314  function addNFT()  public {... */\n    tag_5:\n      tag_13\n      tag_14\n      jump\t// in\n    tag_13:\n      stop\n        /* \"contracts/hello.sol\":366:427  function deleteNFT() public {... */\n    tag_6:\n      tag_15\n      tag_16\n      jump\t// in\n    tag_15:\n      stop\n        /* \"contracts/hello.sol\":84:107  uint public numberOfNFT */\n    tag_8:\n      sload(0x00)\n      dup2\n      jump\t// out\n        /* \"contracts/hello.sol\":147:195  function checkTotalNFT() public {... */\n    tag_12:\n      jump\t// out\n        /* \"contracts/hello.sol\":255:314  function addNFT()  public {... */\n    tag_14:\n        /* \"contracts/hello.sol\":306:307  1 */\n      0x01\n        /* \"contracts/hello.sol\":291:302  numberOfNFT */\n      0x00\n      dup1\n        /* \"contracts/hello.sol\":291:307  numberOfNFT += 1 */\n      dup3\n      dup3\n      sload\n      tag_19\n      swap2\n      swap1\n      tag_20\n      jump\t// in\n    tag_19:\n      swap3\n      pop\n      pop\n      dup2\n      swap1\n      sstore\n      pop\n        /* \"contracts/hello.sol\":255:314  function addNFT()  public {... */\n      jump\t// out\n        /* \"contracts/hello.sol\":366:427  function deleteNFT() public {... */\n    tag_16:\n        /* \"contracts/hello.sol\":419:420  1 */\n      0x01\n        /* \"contracts/hello.sol\":404:415  numberOfNFT */\n      0x00\n      dup1\n        /* \"contracts/hello.sol\":404:420  numberOfNFT -= 1 */\n      dup3\n      dup3\n      sload\n      tag_22\n      swap2\n      swap1\n      tag_23\n      jump\t// in\n    tag_22:\n      swap3\n      pop\n      pop\n      dup2\n      swap1\n      sstore\n      pop\n        /* \"contracts/hello.sol\":366:427  function deleteNFT() public {... */\n      jump\t// out\n        /* \"#utility.yul\":7:84   */\n    tag_24:\n        /* \"#utility.yul\":44:51   */\n      0x00\n        /* \"#utility.yul\":73:78   */\n      dup2\n        /* \"#utility.yul\":62:78   */\n      swap1\n      pop\n        /* \"#utility.yul\":7:84   */\n      swap2\n      swap1\n      pop\n      jump\t// out\n        /* \"#utility.yul\":90:208   */\n    tag_25:\n        /* \"#utility.yul\":177:201   */\n      tag_30\n        /* \"#utility.yul\":195:200   */\n      dup2\n        /* \"#utility.yul\":177:201   */\n      tag_24\n      jump\t// in\n    tag_30:\n        /* \"#utility.yul\":172:175   */\n      dup3\n        /* \"#utility.yul\":165:202   */\n      mstore\n        /* \"#utility.yul\":90:208   */\n      pop\n      pop\n      jump\t// out\n        /* \"#utility.yul\":214:436   */\n    tag_10:\n        /* \"#utility.yul\":307:311   */\n      0x00\n        /* \"#utility.yul\":345:347   */\n      0x20\n        /* \"#utility.yul\":334:343   */\n      dup3\n        /* \"#utility.yul\":330:348   */\n      add\n        /* \"#utility.yul\":322:348   */\n      swap1\n      pop\n        /* \"#utility.yul\":358:429   */\n      tag_32\n        /* \"#utility.yul\":426:427   */\n      0x00\n        /* \"#utility.yul\":415:424   */\n      dup4\n        /* \"#utility.yul\":411:428   */\n      add\n        /* \"#utility.yul\":402:408   */\n      dup5\n        /* \"#utility.yul\":358:429   */\n      tag_25\n      jump\t// in\n    tag_32:\n        /* \"#utility.yul\":214:436   */\n      swap3\n      swap2\n      pop\n      pop\n      jump\t// out\n        /* \"#utility.yul\":442:622   */\n    tag_26:\n        /* \"#utility.yul\":490:567   */\n      0x4e487b7100000000000000000000000000000000000000000000000000000000\n        /* \"#utility.yul\":487:488   */\n      0x00\n        /* \"#utility.yul\":480:568   */\n      mstore\n        /* \"#utility.yul\":587:591   */\n      0x11\n        /* \"#utility.yul\":584:585   */\n      0x04\n        /* \"#utility.yul\":577:592   */\n      mstore\n        /* \"#utility.yul\":611:615   */\n      0x24\n        /* \"#utility.yul\":608:609   */\n      0x00\n        /* \"#utility.yul\":601:616   */\n      revert\n        /* \"#utility.yul\":628:819   */\n    tag_20:\n        /* \"#utility.yul\":668:671   */\n      0x00\n        /* \"#utility.yul\":687:707   */\n      tag_35\n        /* \"#utility.yul\":705:706   */\n      dup3\n        /* \"#utility.yul\":687:707   */\n      tag_24\n      jump\t// in\n    tag_35:\n        /* \"#utility.yul\":682:707   */\n      swap2\n      pop\n        /* \"#utility.yul\":721:741   */\n      tag_36\n        /* \"#utility.yul\":739:740   */\n      dup4\n        /* \"#utility.yul\":721:741   */\n      tag_24\n      jump\t// in\n    tag_36:\n        /* \"#utility.yul\":716:741   */\n      swap3\n      pop\n        /* \"#utility.yul\":764:765   */\n      dup3\n        /* \"#utility.yul\":761:762   */\n      dup3\n        /* \"#utility.yul\":757:766   */\n      add\n        /* \"#utility.yul\":750:766   */\n      swap1\n      pop\n        /* \"#utility.yul\":785:788   */\n      dup1\n        /* \"#utility.yul\":782:783   */\n      dup3\n        /* \"#utility.yul\":779:789   */\n      gt\n        /* \"#utility.yul\":776:812   */\n      iszero\n      tag_37\n      jumpi\n        /* \"#utility.yul\":792:810   */\n      tag_38\n      tag_26\n      jump\t// in\n    tag_38:\n        /* \"#utility.yul\":776:812   */\n    tag_37:\n        /* \"#utility.yul\":628:819   */\n      swap3\n      swap2\n      pop\n      pop\n      jump\t// out\n        /* \"#utility.yul\":825:1019   */\n    tag_23:\n        /* \"#utility.yul\":865:869   */\n      0x00\n        /* \"#utility.yul\":885:905   */\n      tag_40\n        /* \"#utility.yul\":903:904   */\n      dup3\n        /* \"#utility.yul\":885:905   */\n      tag_24\n      jump\t// in\n    tag_40:\n        /* \"#utility.yul\":880:905   */\n      swap2\n      pop\n        /* \"#utility.yul\":919:939   */\n      tag_41\n        /* \"#utility.yul\":937:938   */\n      dup4\n        /* \"#utility.yul\":919:939   */\n      tag_24\n      jump\t// in\n    tag_41:\n        /* \"#utility.yul\":914:939   */\n      swap3\n      pop\n        /* \"#utility.yul\":963:964   */\n      dup3\n        /* \"#utility.yul\":960:961   */\n      dup3\n        /* \"#utility.yul\":956:965   */\n      sub\n        /* \"#utility.yul\":948:965   */\n      swap1\n      pop\n        /* \"#utility.yul\":987:988   */\n      dup2\n        /* \"#utility.yul\":981:985   */\n      dup2\n        /* \"#utility.yul\":978:989   */\n      gt\n        /* \"#utility.yul\":975:1012   */\n      iszero\n      tag_42\n      jumpi\n        /* \"#utility.yul\":992:1010   */\n      tag_43\n      tag_26\n      jump\t// in\n    tag_43:\n        /* \"#utility.yul\":975:1012   */\n    tag_42:\n        /* \"#utility.yul\":825:1019   */\n      swap3\n      swap2\n      pop\n      pop\n      jump\t// out\n\n    auxdata: 0xa2646970667358221220623d733ef6be4ada005d51a146b90584069bf14f9cd28f2358f7f970243668fd64736f6c634300081a0033\n}\n",
				"bytecode": {
					"linkReferences": {},
					"object": "6080604052348015600e575f80fd5b506101bf8061001c5f395ff3fe608060405234801561000f575f80fd5b506004361061004a575f3560e01c80633748a5c21461004e5780633d82faf01461006c5780638acc7b4714610076578063e02b87bb14610080575b5f80fd5b61005661008a565b60405161006391906100dd565b60405180910390f35b61007461008f565b005b61007e610091565b005b6100886100ab565b005b5f5481565b565b60015f808282546100a29190610123565b92505081905550565b60015f808282546100bc9190610156565b92505081905550565b5f819050919050565b6100d7816100c5565b82525050565b5f6020820190506100f05f8301846100ce565b92915050565b7f4e487b71000000000000000000000000000000000000000000000000000000005f52601160045260245ffd5b5f61012d826100c5565b9150610138836100c5565b92508282019050808211156101505761014f6100f6565b5b92915050565b5f610160826100c5565b915061016b836100c5565b9250828203905081811115610183576101826100f6565b5b9291505056fea2646970667358221220623d733ef6be4ada005d51a146b90584069bf14f9cd28f2358f7f970243668fd64736f6c634300081a0033",
					"opcodes": "PUSH1 0x80 PUSH1 0x40 MSTORE CALLVALUE DUP1 ISZERO PUSH1 0xE JUMPI PUSH0 DUP1 REVERT JUMPDEST POP PUSH2 0x1BF DUP1 PUSH2 0x1C PUSH0 CODECOPY PUSH0 RETURN INVALID PUSH1 0x80 PUSH1 0x40 MSTORE CALLVALUE DUP1 ISZERO PUSH2 0xF JUMPI PUSH0 DUP1 REVERT JUMPDEST POP PUSH1 0x4 CALLDATASIZE LT PUSH2 0x4A JUMPI PUSH0 CALLDATALOAD PUSH1 0xE0 SHR DUP1 PUSH4 0x3748A5C2 EQ PUSH2 0x4E JUMPI DUP1 PUSH4 0x3D82FAF0 EQ PUSH2 0x6C JUMPI DUP1 PUSH4 0x8ACC7B47 EQ PUSH2 0x76 JUMPI DUP1 PUSH4 0xE02B87BB EQ PUSH2 0x80 JUMPI JUMPDEST PUSH0 DUP1 REVERT JUMPDEST PUSH2 0x56 PUSH2 0x8A JUMP JUMPDEST PUSH1 0x40 MLOAD PUSH2 0x63 SWAP2 SWAP1 PUSH2 0xDD JUMP JUMPDEST PUSH1 0x40 MLOAD DUP1 SWAP2 SUB SWAP1 RETURN JUMPDEST PUSH2 0x74 PUSH2 0x8F JUMP JUMPDEST STOP JUMPDEST PUSH2 0x7E PUSH2 0x91 JUMP JUMPDEST STOP JUMPDEST PUSH2 0x88 PUSH2 0xAB JUMP JUMPDEST STOP JUMPDEST PUSH0 SLOAD DUP2 JUMP JUMPDEST JUMP JUMPDEST PUSH1 0x1 PUSH0 DUP1 DUP3 DUP3 SLOAD PUSH2 0xA2 SWAP2 SWAP1 PUSH2 0x123 JUMP JUMPDEST SWAP3 POP POP DUP2 SWAP1 SSTORE POP JUMP JUMPDEST PUSH1 0x1 PUSH0 DUP1 DUP3 DUP3 SLOAD PUSH2 0xBC SWAP2 SWAP1 PUSH2 0x156 JUMP JUMPDEST SWAP3 POP POP DUP2 SWAP1 SSTORE POP JUMP JUMPDEST PUSH0 DUP2 SWAP1 POP SWAP2 SWAP1 POP JUMP JUMPDEST PUSH2 0xD7 DUP2 PUSH2 0xC5 JUMP JUMPDEST DUP3 MSTORE POP POP JUMP JUMPDEST PUSH0 PUSH1 0x20 DUP3 ADD SWAP1 POP PUSH2 0xF0 PUSH0 DUP4 ADD DUP5 PUSH2 0xCE JUMP JUMPDEST SWAP3 SWAP2 POP POP JUMP JUMPDEST PUSH32 0x4E487B7100000000000000000000000000000000000000000000000000000000 PUSH0 MSTORE PUSH1 0x11 PUSH1 0x4 MSTORE PUSH1 0x24 PUSH0 REVERT JUMPDEST PUSH0 PUSH2 0x12D DUP3 PUSH2 0xC5 JUMP JUMPDEST SWAP2 POP PUSH2 0x138 DUP4 PUSH2 0xC5 JUMP JUMPDEST SWAP3 POP DUP3 DUP3 ADD SWAP1 POP DUP1 DUP3 GT ISZERO PUSH2 0x150 JUMPI PUSH2 0x14F PUSH2 0xF6 JUMP JUMPDEST JUMPDEST SWAP3 SWAP2 POP POP JUMP JUMPDEST PUSH0 PUSH2 0x160 DUP3 PUSH2 0xC5 JUMP JUMPDEST SWAP2 POP PUSH2 0x16B DUP4 PUSH2 0xC5 JUMP JUMPDEST SWAP3 POP DUP3 DUP3 SUB SWAP1 POP DUP2 DUP2 GT ISZERO PUSH2 0x183 JUMPI PUSH2 0x182 PUSH2 0xF6 JUMP JUMPDEST JUMPDEST SWAP3 SWAP2 POP POP JUMP INVALID LOG2 PUSH5 0x6970667358 0x22 SLT KECCAK256 PUSH3 0x3D733E 0xF6 0xBE BLOBBASEFEE 0xDA STOP TSTORE MLOAD LOG1 CHAINID 0xB9 SDIV DUP5 MOD SWAP12 CALL 0x4F SWAP13 0xD2 DUP16 0x23 PC 0xF7 0xF9 PUSH17 0x243668FD64736F6C634300081A00330000 "
				},
				"gasEstimates": {
					"creation": {
						"codeDepositCost": "89400",
						"executionCost": "133",
						"totalCost": "89533"
					},
					"external": {
						"addNFT()": "infinite",
						"checkTotalNFT()": "143",
						"deleteNFT()": "infinite",
						"numberOfNFT()": "2402"
					}
				},
				"methodIdentifiers": {
					"addNFT()": "8acc7b47",
					"checkTotalNFT()": "3d82faf0",
					"deleteNFT()": "e02b87bb",
					"numberOfNFT()": "3748a5c2"
				}
			},
			"storageLayout": {
				"storage": [
					{
						"astId": 3,
						"contract": "contracts/hello.sol:NFTCount",
						"label": "numberOfNFT",
						"offset": 0,
						"slot": "0",
						"type": "t_uint256"
					}
				],
				"types": {
					"t_uint256": {
						"encoding": "inplace",
						"label": "uint256",
						"numberOfBytes": "32"
					}
				}
			},
			"userdoc": {
				"kind": "user",
				"methods": {},
				"version": 1
			}
		}
	}
}