{
	"contracts/hello.sol": {
		"NFTCount": {
			"abi": [
				{
					"inputs": [],
					"name": "addNFT",
					"outputs": [],
					"stateMutability": "nonpayable",
					"type": "function"
				},
				{
					"inputs": [],
					"name": "deleteNFT",
					"outputs": [],
					"stateMutability": "nonpayable",
					"type": "function"
				},
				{
					"inputs": [],
					"name": "getTotalNFT",
					"outputs": [
						{
							"internalType": "uint256",
							"name": "",
							"type": "uint256"
						}
					],
					"stateMutability": "view",
					"type": "function"
				},
				{
					"inputs": [],
					"name": "numberOfNFT",
					"outputs": [
						{
							"internalType": "uint256",
							"name": "",
							"type": "uint256"
						}
					],
					"stateMutability": "view",
					"type": "function"
				}
			],
			"devdoc": {
				"kind": "dev",
				"methods": {},
				"version": 1
			},
			"evm": {
				"assembly": "    /* \"contracts/hello.sol\":60:543  contract NFTCount{... */\n  mstore(0x40, 0x80)\n  callvalue\n  dup1\n  iszero\n  tag_1\n  jumpi\n  0x00\n  dup1\n  revert\ntag_1:\n  pop\n  dataSize(sub_0)\n  dup1\n  dataOffset(sub_0)\n  0x00\n  codecopy\n  0x00\n  return\nstop\n\nsub_0: assembly {\n        /* \"contracts/hello.sol\":60:543  contract NFTCount{... */\n      mstore(0x40, 0x80)\n      callvalue\n      dup1\n      iszero\n      tag_1\n      jumpi\n      0x00\n      dup1\n      revert\n    tag_1:\n      pop\n      jumpi(tag_2, lt(calldatasize, 0x04))\n      shr(0xe0, calldataload(0x00))\n      dup1\n      0x3748a5c2\n      eq\n      tag_3\n      jumpi\n      dup1\n      0x8acc7b47\n      eq\n      tag_4\n      jumpi\n      dup1\n      0xbcf16f2d\n      eq\n      tag_5\n      jumpi\n      dup1\n      0xe02b87bb\n      eq\n      tag_6\n      jumpi\n    tag_2:\n      0x00\n      dup1\n      revert\n        /* \"contracts/hello.sol\":84:107  uint public numberOfNFT */\n    tag_3:\n      tag_7\n      tag_8\n      jump\t// in\n    tag_7:\n      mload(0x40)\n      tag_9\n      swap2\n      swap1\n      tag_10\n      jump\t// in\n    tag_9:\n      mload(0x40)\n      dup1\n      swap2\n      sub\n      swap1\n      return\n        /* \"contracts/hello.sol\":299:358  function addNFT()  public {... */\n    tag_4:\n      tag_11\n      tag_12\n      jump\t// in\n    tag_11:\n      stop\n        /* \"contracts/hello.sol\":147:239  function getTotalNFT() external view returns(uint) {... */\n    tag_5:\n      tag_13\n      tag_14\n      jump\t// in\n    tag_13:\n      mload(0x40)\n      tag_15\n      swap2\n      swap1\n      tag_10\n      jump\t// in\n    tag_15:\n      mload(0x40)\n      dup1\n      swap2\n      sub\n      swap1\n      return\n        /* \"contracts/hello.sol\":410:541  function deleteNFT() public {... */\n    tag_6:\n      tag_16\n      tag_17\n      jump\t// in\n    tag_16:\n      stop\n        /* \"contracts/hello.sol\":84:107  uint public numberOfNFT */\n    tag_8:\n      sload(0x00)\n      dup2\n      jump\t// out\n        /* \"contracts/hello.sol\":299:358  function addNFT()  public {... */\n    tag_12:\n        /* \"contracts/hello.sol\":350:351  1 */\n      0x01\n        /* \"contracts/hello.sol\":335:346  numberOfNFT */\n      0x00\n      dup1\n        /* \"contracts/hello.sol\":335:351  numberOfNFT += 1 */\n      dup3\n      dup3\n      sload\n      tag_19\n      swap2\n      swap1\n      tag_20\n      jump\t// in\n    tag_19:\n      swap3\n      pop\n      pop\n      dup2\n      swap1\n      sstore\n      pop\n        /* \"contracts/hello.sol\":299:358  function addNFT()  public {... */\n      jump\t// out\n        /* \"contracts/hello.sol\":147:239  function getTotalNFT() external view returns(uint) {... */\n    tag_14:\n        /* \"contracts/hello.sol\":192:196  uint */\n      0x00\n        /* \"contracts/hello.sol\":219:230  numberOfNFT */\n      dup1\n      sload\n        /* \"contracts/hello.sol\":212:230  return numberOfNFT */\n      swap1\n      pop\n        /* \"contracts/hello.sol\":147:239  function getTotalNFT() external view returns(uint) {... */\n      swap1\n      jump\t// out\n        /* \"contracts/hello.sol\":410:541  function deleteNFT() public {... */\n    tag_17:\n        /* \"contracts/hello.sol\":470:471  0 */\n      0x00\n        /* \"contracts/hello.sol\":456:467  numberOfNFT */\n      dup1\n      sload\n        /* \"contracts/hello.sol\":456:471  numberOfNFT > 0 */\n      gt\n        /* \"contracts/hello.sol\":448:508  require(numberOfNFT > 0, \"You cannot delete more than NFTs\") */\n      tag_23\n      jumpi\n      mload(0x40)\n      0x08c379a000000000000000000000000000000000000000000000000000000000\n      dup2\n      mstore\n      0x04\n      add\n      tag_24\n      swap1\n      tag_25\n      jump\t// in\n    tag_24:\n      mload(0x40)\n      dup1\n      swap2\n      sub\n      swap1\n      revert\n    tag_23:\n        /* \"contracts/hello.sol\":533:534  1 */\n      0x01\n        /* \"contracts/hello.sol\":518:529  numberOfNFT */\n      0x00\n      dup1\n        /* \"contracts/hello.sol\":518:534  numberOfNFT -= 1 */\n      dup3\n      dup3\n      sload\n      tag_26\n      swap2\n      swap1\n      tag_27\n      jump\t// in\n    tag_26:\n      swap3\n      pop\n      pop\n      dup2\n      swap1\n      sstore\n      pop\n        /* \"contracts/hello.sol\":410:541  function deleteNFT() public {... */\n      jump\t// out\n        /* \"#utility.yul\":7:84   */\n    tag_28:\n        /* \"#utility.yul\":44:51   */\n      0x00\n        /* \"#utility.yul\":73:78   */\n      dup2\n        /* \"#utility.yul\":62:78   */\n      swap1\n      pop\n        /* \"#utility.yul\":7:84   */\n      swap2\n      swap1\n      pop\n      jump\t// out\n        /* \"#utility.yul\":90:208   */\n    tag_29:\n        /* \"#utility.yul\":177:201   */\n      tag_37\n        /* \"#utility.yul\":195:200   */\n      dup2\n        /* \"#utility.yul\":177:201   */\n      tag_28\n      jump\t// in\n    tag_37:\n        /* \"#utility.yul\":172:175   */\n      dup3\n        /* \"#utility.yul\":165:202   */\n      mstore\n        /* \"#utility.yul\":90:208   */\n      pop\n      pop\n      jump\t// out\n        /* \"#utility.yul\":214:436   */\n    tag_10:\n        /* \"#utility.yul\":307:311   */\n      0x00\n        /* \"#utility.yul\":345:347   */\n      0x20\n        /* \"#utility.yul\":334:343   */\n      dup3\n        /* \"#utility.yul\":330:348   */\n      add\n        /* \"#utility.yul\":322:348   */\n      swap1\n      pop\n        /* \"#utility.yul\":358:429   */\n      tag_39\n        /* \"#utility.yul\":426:427   */\n      0x00\n        /* \"#utility.yul\":415:424   */\n      dup4\n        /* \"#utility.yul\":411:428   */\n      add\n        /* \"#utility.yul\":402:408   */\n      dup5\n        /* \"#utility.yul\":358:429   */\n      tag_29\n      jump\t// in\n    tag_39:\n        /* \"#utility.yul\":214:436   */\n      swap3\n      swap2\n      pop\n      pop\n      jump\t// out\n        /* \"#utility.yul\":442:622   */\n    tag_30:\n        /* \"#utility.yul\":490:567   */\n      0x4e487b7100000000000000000000000000000000000000000000000000000000\n        /* \"#utility.yul\":487:488   */\n      0x00\n        /* \"#utility.yul\":480:568   */\n      mstore\n        /* \"#utility.yul\":587:591   */\n      0x11\n        /* \"#utility.yul\":584:585   */\n      0x04\n        /* \"#utility.yul\":577:592   */\n      mstore\n        /* \"#utility.yul\":611:615   */\n      0x24\n        /* \"#utility.yul\":608:609   */\n      0x00\n        /* \"#utility.yul\":601:616   */\n      revert\n        /* \"#utility.yul\":628:819   */\n    tag_20:\n        /* \"#utility.yul\":668:671   */\n      0x00\n        /* \"#utility.yul\":687:707   */\n      tag_42\n        /* \"#utility.yul\":705:706   */\n      dup3\n        /* \"#utility.yul\":687:707   */\n      tag_28\n      jump\t// in\n    tag_42:\n        /* \"#utility.yul\":682:707   */\n      swap2\n      pop\n        /* \"#utility.yul\":721:741   */\n      tag_43\n        /* \"#utility.yul\":739:740   */\n      dup4\n        /* \"#utility.yul\":721:741   */\n      tag_28\n      jump\t// in\n    tag_43:\n        /* \"#utility.yul\":716:741   */\n      swap3\n      pop\n        /* \"#utility.yul\":764:765   */\n      dup3\n        /* \"#utility.yul\":761:762   */\n      dup3\n        /* \"#utility.yul\":757:766   */\n      add\n        /* \"#utility.yul\":750:766   */\n      swap1\n      pop\n        /* \"#utility.yul\":785:788   */\n      dup1\n        /* \"#utility.yul\":782:783   */\n      dup3\n        /* \"#utility.yul\":779:789   */\n      gt\n        /* \"#utility.yul\":776:812   */\n      iszero\n      tag_44\n      jumpi\n        /* \"#utility.yul\":792:810   */\n      tag_45\n      tag_30\n      jump\t// in\n    tag_45:\n        /* \"#utility.yul\":776:812   */\n    tag_44:\n        /* \"#utility.yul\":628:819   */\n      swap3\n      swap2\n      pop\n      pop\n      jump\t// out\n        /* \"#utility.yul\":825:994   */\n    tag_31:\n        /* \"#utility.yul\":909:920   */\n      0x00\n        /* \"#utility.yul\":943:949   */\n      dup3\n        /* \"#utility.yul\":938:941   */\n      dup3\n        /* \"#utility.yul\":931:950   */\n      mstore\n        /* \"#utility.yul\":983:987   */\n      0x20\n        /* \"#utility.yul\":978:981   */\n      dup3\n        /* \"#utility.yul\":974:988   */\n      add\n        /* \"#utility.yul\":959:988   */\n      swap1\n      pop\n        /* \"#utility.yul\":825:994   */\n      swap3\n      swap2\n      pop\n      pop\n      jump\t// out\n        /* \"#utility.yul\":1000:1182   */\n    tag_32:\n        /* \"#utility.yul\":1140:1174   */\n      0x596f752063616e6e6f742064656c657465206d6f7265207468616e204e465473\n        /* \"#utility.yul\":1136:1137   */\n      0x00\n        /* \"#utility.yul\":1128:1134   */\n      dup3\n        /* \"#utility.yul\":1124:1138   */\n      add\n        /* \"#utility.yul\":1117:1175   */\n      mstore\n        /* \"#utility.yul\":1000:1182   */\n      pop\n      jump\t// out\n        /* \"#utility.yul\":1188:1554   */\n    tag_33:\n        /* \"#utility.yul\":1330:1333   */\n      0x00\n        /* \"#utility.yul\":1351:1418   */\n      tag_49\n        /* \"#utility.yul\":1415:1417   */\n      0x20\n        /* \"#utility.yul\":1410:1413   */\n      dup4\n        /* \"#utility.yul\":1351:1418   */\n      tag_31\n      jump\t// in\n    tag_49:\n        /* \"#utility.yul\":1344:1418   */\n      swap2\n      pop\n        /* \"#utility.yul\":1427:1520   */\n      tag_50\n        /* \"#utility.yul\":1516:1519   */\n      dup3\n        /* \"#utility.yul\":1427:1520   */\n      tag_32\n      jump\t// in\n    tag_50:\n        /* \"#utility.yul\":1545:1547   */\n      0x20\n        /* \"#utility.yul\":1540:1543   */\n      dup3\n        /* \"#utility.yul\":1536:1548   */\n      add\n        /* \"#utility.yul\":1529:1548   */\n      swap1\n      pop\n        /* \"#utility.yul\":1188:1554   */\n      swap2\n      swap1\n      pop\n      jump\t// out\n        /* \"#utility.yul\":1560:1979   */\n    tag_25:\n        /* \"#utility.yul\":1726:1730   */\n      0x00\n        /* \"#utility.yul\":1764:1766   */\n      0x20\n        /* \"#utility.yul\":1753:1762   */\n      dup3\n        /* \"#utility.yul\":1749:1767   */\n      add\n        /* \"#utility.yul\":1741:1767   */\n      swap1\n      pop\n        /* \"#utility.yul\":1813:1822   */\n      dup2\n        /* \"#utility.yul\":1807:1811   */\n      dup2\n        /* \"#utility.yul\":1803:1823   */\n      sub\n        /* \"#utility.yul\":1799:1800   */\n      0x00\n        /* \"#utility.yul\":1788:1797   */\n      dup4\n        /* \"#utility.yul\":1784:1801   */\n      add\n        /* \"#utility.yul\":1777:1824   */\n      mstore\n        /* \"#utility.yul\":1841:1972   */\n      tag_52\n        /* \"#utility.yul\":1967:1971   */\n      dup2\n        /* \"#utility.yul\":1841:1972   */\n      tag_33\n      jump\t// in\n    tag_52:\n        /* \"#utility.yul\":1833:1972   */\n      swap1\n      pop\n        /* \"#utility.yul\":1560:1979   */\n      swap2\n      swap1\n      pop\n      jump\t// out\n        /* \"#utility.yul\":1985:2179   */\n    tag_27:\n        /* \"#utility.yul\":2025:2029   */\n      0x00\n        /* \"#utility.yul\":2045:2065   */\n      tag_54\n        /* \"#utility.yul\":2063:2064   */\n      dup3\n        /* \"#utility.yul\":2045:2065   */\n      tag_28\n      jump\t// in\n    tag_54:\n        /* \"#utility.yul\":2040:2065   */\n      swap2\n      pop\n        /* \"#utility.yul\":2079:2099   */\n      tag_55\n        /* \"#utility.yul\":2097:2098   */\n      dup4\n        /* \"#utility.yul\":2079:2099   */\n      tag_28\n      jump\t// in\n    tag_55:\n        /* \"#utility.yul\":2074:2099   */\n      swap3\n      pop\n        /* \"#utility.yul\":2123:2124   */\n      dup3\n        /* \"#utility.yul\":2120:2121   */\n      dup3\n        /* \"#utility.yul\":2116:2125   */\n      sub\n        /* \"#utility.yul\":2108:2125   */\n      swap1\n      pop\n        /* \"#utility.yul\":2147:2148   */\n      dup2\n        /* \"#utility.yul\":2141:2145   */\n      dup2\n        /* \"#utility.yul\":2138:2149   */\n      gt\n        /* \"#utility.yul\":2135:2172   */\n      iszero\n      tag_56\n      jumpi\n        /* \"#utility.yul\":2152:2170   */\n      tag_57\n      tag_30\n      jump\t// in\n    tag_57:\n        /* \"#utility.yul\":2135:2172   */\n    tag_56:\n        /* \"#utility.yul\":1985:2179   */\n      swap3\n      swap2\n      pop\n      pop\n      jump\t// out\n\n    auxdata: 0xa2646970667358221220d2dfac463eba80a04bb7d7328cc64bd37fb6fc4c7d2dd34372a819753ee6d60164736f6c634300081a0033\n}\n",
				"bytecode": {
					"linkReferences": {},
					"object": "6080604052348015600e575f80fd5b506102948061001c5f395ff3fe608060405234801561000f575f80fd5b506004361061004a575f3560e01c80633748a5c21461004e5780638acc7b471461006c578063bcf16f2d14610076578063e02b87bb14610094575b5f80fd5b61005661009e565b604051610063919061013a565b60405180910390f35b6100746100a3565b005b61007e6100bd565b60405161008b919061013a565b60405180910390f35b61009c6100c5565b005b5f5481565b60015f808282546100b49190610180565b92505081905550565b5f8054905090565b5f805411610108576040517f08c379a00000000000000000000000000000000000000000000000000000000081526004016100ff9061020d565b60405180910390fd5b60015f80828254610119919061022b565b92505081905550565b5f819050919050565b61013481610122565b82525050565b5f60208201905061014d5f83018461012b565b92915050565b7f4e487b71000000000000000000000000000000000000000000000000000000005f52601160045260245ffd5b5f61018a82610122565b915061019583610122565b92508282019050808211156101ad576101ac610153565b5b92915050565b5f82825260208201905092915050565b7f596f752063616e6e6f742064656c657465206d6f7265207468616e204e4654735f82015250565b5f6101f76020836101b3565b9150610202826101c3565b602082019050919050565b5f6020820190508181035f830152610224816101eb565b9050919050565b5f61023582610122565b915061024083610122565b925082820390508181111561025857610257610153565b5b9291505056fea2646970667358221220d2dfac463eba80a04bb7d7328cc64bd37fb6fc4c7d2dd34372a819753ee6d60164736f6c634300081a0033",
					"opcodes": "PUSH1 0x80 PUSH1 0x40 MSTORE CALLVALUE DUP1 ISZERO PUSH1 0xE JUMPI PUSH0 DUP1 REVERT JUMPDEST POP PUSH2 0x294 DUP1 PUSH2 0x1C PUSH0 CODECOPY PUSH0 RETURN INVALID PUSH1 0x80 PUSH1 0x40 MSTORE CALLVALUE DUP1 ISZERO PUSH2 0xF JUMPI PUSH0 DUP1 REVERT JUMPDEST POP PUSH1 0x4 CALLDATASIZE LT PUSH2 0x4A JUMPI PUSH0 CALLDATALOAD PUSH1 0xE0 SHR DUP1 PUSH4 0x3748A5C2 EQ PUSH2 0x4E JUMPI DUP1 PUSH4 0x8ACC7B47 EQ PUSH2 0x6C JUMPI DUP1 PUSH4 0xBCF16F2D EQ PUSH2 0x76 JUMPI DUP1 PUSH4 0xE02B87BB EQ PUSH2 0x94 JUMPI JUMPDEST PUSH0 DUP1 REVERT JUMPDEST PUSH2 0x56 PUSH2 0x9E JUMP JUMPDEST PUSH1 0x40 MLOAD PUSH2 0x63 SWAP2 SWAP1 PUSH2 0x13A JUMP JUMPDEST PUSH1 0x40 MLOAD DUP1 SWAP2 SUB SWAP1 RETURN JUMPDEST PUSH2 0x74 PUSH2 0xA3 JUMP JUMPDEST STOP JUMPDEST PUSH2 0x7E PUSH2 0xBD JUMP JUMPDEST PUSH1 0x40 MLOAD PUSH2 0x8B SWAP2 SWAP1 PUSH2 0x13A JUMP JUMPDEST PUSH1 0x40 MLOAD DUP1 SWAP2 SUB SWAP1 RETURN JUMPDEST PUSH2 0x9C PUSH2 0xC5 JUMP JUMPDEST STOP JUMPDEST PUSH0 SLOAD DUP2 JUMP JUMPDEST PUSH1 0x1 PUSH0 DUP1 DUP3 DUP3 SLOAD PUSH2 0xB4 SWAP2 SWAP1 PUSH2 0x180 JUMP JUMPDEST SWAP3 POP POP DUP2 SWAP1 SSTORE POP JUMP JUMPDEST PUSH0 DUP1 SLOAD SWAP1 POP SWAP1 JUMP JUMPDEST PUSH0 DUP1 SLOAD GT PUSH2 0x108 JUMPI PUSH1 0x40 MLOAD PUSH32 0x8C379A000000000000000000000000000000000000000000000000000000000 DUP2 MSTORE PUSH1 0x4 ADD PUSH2 0xFF SWAP1 PUSH2 0x20D JUMP JUMPDEST PUSH1 0x40 MLOAD DUP1 SWAP2 SUB SWAP1 REVERT JUMPDEST PUSH1 0x1 PUSH0 DUP1 DUP3 DUP3 SLOAD PUSH2 0x119 SWAP2 SWAP1 PUSH2 0x22B JUMP JUMPDEST SWAP3 POP POP DUP2 SWAP1 SSTORE POP JUMP JUMPDEST PUSH0 DUP2 SWAP1 POP SWAP2 SWAP1 POP JUMP JUMPDEST PUSH2 0x134 DUP2 PUSH2 0x122 JUMP JUMPDEST DUP3 MSTORE POP POP JUMP JUMPDEST PUSH0 PUSH1 0x20 DUP3 ADD SWAP1 POP PUSH2 0x14D PUSH0 DUP4 ADD DUP5 PUSH2 0x12B JUMP JUMPDEST SWAP3 SWAP2 POP POP JUMP JUMPDEST PUSH32 0x4E487B7100000000000000000000000000000000000000000000000000000000 PUSH0 MSTORE PUSH1 0x11 PUSH1 0x4 MSTORE PUSH1 0x24 PUSH0 REVERT JUMPDEST PUSH0 PUSH2 0x18A DUP3 PUSH2 0x122 JUMP JUMPDEST SWAP2 POP PUSH2 0x195 DUP4 PUSH2 0x122 JUMP JUMPDEST SWAP3 POP DUP3 DUP3 ADD SWAP1 POP DUP1 DUP3 GT ISZERO PUSH2 0x1AD JUMPI PUSH2 0x1AC PUSH2 0x153 JUMP JUMPDEST JUMPDEST SWAP3 SWAP2 POP POP JUMP JUMPDEST PUSH0 DUP3 DUP3 MSTORE PUSH1 0x20 DUP3 ADD SWAP1 POP SWAP3 SWAP2 POP POP JUMP JUMPDEST PUSH32 0x596F752063616E6E6F742064656C657465206D6F7265207468616E204E465473 PUSH0 DUP3 ADD MSTORE POP JUMP JUMPDEST PUSH0 PUSH2 0x1F7 PUSH1 0x20 DUP4 PUSH2 0x1B3 JUMP JUMPDEST SWAP2 POP PUSH2 0x202 DUP3 PUSH2 0x1C3 JUMP JUMPDEST PUSH1 0x20 DUP3 ADD SWAP1 POP SWAP2 SWAP1 POP JUMP JUMPDEST PUSH0 PUSH1 0x20 DUP3 ADD SWAP1 POP DUP2 DUP2 SUB PUSH0 DUP4 ADD MSTORE PUSH2 0x224 DUP2 PUSH2 0x1EB JUMP JUMPDEST SWAP1 POP SWAP2 SWAP1 POP JUMP JUMPDEST PUSH0 PUSH2 0x235 DUP3 PUSH2 0x122 JUMP JUMPDEST SWAP2 POP PUSH2 0x240 DUP4 PUSH2 0x122 JUMP JUMPDEST SWAP3 POP DUP3 DUP3 SUB SWAP1 POP DUP2 DUP2 GT ISZERO PUSH2 0x258 JUMPI PUSH2 0x257 PUSH2 0x153 JUMP JUMPDEST JUMPDEST SWAP3 SWAP2 POP POP JUMP INVALID LOG2 PUSH5 0x6970667358 0x22 SLT KECCAK256 0xD2 0xDF 0xAC CHAINID RETURNDATACOPY 0xBA DUP1 LOG0 0x4B 0xB7 0xD7 ORIGIN DUP13 0xC6 0x4B 0xD3 PUSH32 0xB6FC4C7D2DD34372A819753EE6D60164736F6C634300081A0033000000000000 "
				},
				"gasEstimates": {
					"creation": {
						"codeDepositCost": "132000",
						"executionCost": "175",
						"totalCost": "132175"
					},
					"external": {
						"addNFT()": "infinite",
						"deleteNFT()": "infinite",
						"getTotalNFT()": "2454",
						"numberOfNFT()": "2402"
					}
				},
				"methodIdentifiers": {
					"addNFT()": "8acc7b47",
					"deleteNFT()": "e02b87bb",
					"getTotalNFT()": "bcf16f2d",
					"numberOfNFT()": "3748a5c2"
				}
			},
			"storageLayout": {
				"storage": [
					{
						"astId": 3,
						"contract": "contracts/hello.sol:NFTCount",
						"label": "numberOfNFT",
						"offset": 0,
						"slot": "0",
						"type": "t_uint256"
					}
				],
				"types": {
					"t_uint256": {
						"encoding": "inplace",
						"label": "uint256",
						"numberOfBytes": "32"
					}
				}
			},
			"userdoc": {
				"kind": "user",
				"methods": {},
				"version": 1
			}
		}
	}
}